{
  "contractName": "APC2MHC",
  "abi": [
    {
      "constant": true,
      "inputs": [],
      "name": "owner",
      "outputs": [
        {
          "name": "",
          "type": "address"
        }
      ],
      "payable": false,
      "stateMutability": "view",
      "type": "function"
    },
    {
      "constant": true,
      "inputs": [],
      "name": "denominator",
      "outputs": [
        {
          "name": "",
          "type": "uint16"
        }
      ],
      "payable": false,
      "stateMutability": "view",
      "type": "function"
    },
    {
      "constant": true,
      "inputs": [],
      "name": "unfreezeCount",
      "outputs": [
        {
          "name": "",
          "type": "uint16"
        }
      ],
      "payable": false,
      "stateMutability": "view",
      "type": "function"
    },
    {
      "constant": true,
      "inputs": [
        {
          "name": "",
          "type": "uint256"
        }
      ],
      "name": "assets",
      "outputs": [
        {
          "name": "userAddress",
          "type": "address"
        },
        {
          "name": "totalAmount",
          "type": "uint64"
        }
      ],
      "payable": false,
      "stateMutability": "view",
      "type": "function"
    },
    {
      "constant": true,
      "inputs": [],
      "name": "molecule",
      "outputs": [
        {
          "name": "",
          "type": "uint8"
        }
      ],
      "payable": false,
      "stateMutability": "view",
      "type": "function"
    },
    {
      "inputs": [],
      "payable": false,
      "stateMutability": "nonpayable",
      "type": "constructor"
    },
    {
      "constant": false,
      "inputs": [
        {
          "name": "_ownerAddress",
          "type": "address"
        }
      ],
      "name": "changeOwner",
      "outputs": [],
      "payable": false,
      "stateMutability": "nonpayable",
      "type": "function"
    },
    {
      "constant": true,
      "inputs": [
        {
          "name": "_address",
          "type": "address"
        }
      ],
      "name": "getAsset",
      "outputs": [
        {
          "name": "",
          "type": "uint64"
        },
        {
          "name": "",
          "type": "uint8"
        }
      ],
      "payable": false,
      "stateMutability": "view",
      "type": "function"
    },
    {
      "constant": false,
      "inputs": [
        {
          "name": "_addr",
          "type": "address"
        },
        {
          "name": "_frozenMount",
          "type": "uint32"
        }
      ],
      "name": "add",
      "outputs": [
        {
          "name": "has",
          "type": "bool"
        }
      ],
      "payable": false,
      "stateMutability": "nonpayable",
      "type": "function"
    },
    {
      "constant": false,
      "inputs": [],
      "name": "unfreeze",
      "outputs": [],
      "payable": true,
      "stateMutability": "payable",
      "type": "function"
    }
  ],
  "bytecode": "0x608060405260028060006101000a81548160ff021916908360ff1602179055506103e8600260016101000a81548161ffff021916908361ffff16021790555034801561004a57600080fd5b50336000806101000a81548173ffffffffffffffffffffffffffffffffffffffff021916908373ffffffffffffffffffffffffffffffffffffffff160217905550610a1c8061009a6000396000f3fe6080604052600436106100865760003560e01c8063a6f9dae111610059578063a6f9dae1146101a5578063c590c994146101f6578063cf35bdd014610229578063ec478f27146102bf578063fc97a652146102f057610086565b806330b8b2c61461008b5780636a28f000146101115780638da5cb5b1461011b57806396ce079514610172575b600080fd5b34801561009757600080fd5b506100da600480360360208110156100ae57600080fd5b81019080803573ffffffffffffffffffffffffffffffffffffffff169060200190929190505050610369565b604051808367ffffffffffffffff1667ffffffffffffffff1681526020018260ff1660ff1681526020019250505060405180910390f35b61011961044a565b005b34801561012757600080fd5b506101306106f5565b604051808273ffffffffffffffffffffffffffffffffffffffff1673ffffffffffffffffffffffffffffffffffffffff16815260200191505060405180910390f35b34801561017e57600080fd5b5061018761071a565b604051808261ffff1661ffff16815260200191505060405180910390f35b3480156101b157600080fd5b506101f4600480360360208110156101c857600080fd5b81019080803573ffffffffffffffffffffffffffffffffffffffff16906020019092919050505061072e565b005b34801561020257600080fd5b5061020b6107ca565b604051808261ffff1661ffff16815260200191505060405180910390f35b34801561023557600080fd5b506102626004803603602081101561024c57600080fd5b81019080803590602001909291905050506107de565b604051808373ffffffffffffffffffffffffffffffffffffffff1673ffffffffffffffffffffffffffffffffffffffff1681526020018267ffffffffffffffff1667ffffffffffffffff1681526020019250505060405180910390f35b3480156102cb57600080fd5b506102d461083f565b604051808260ff1660ff16815260200191505060405180910390f35b3480156102fc57600080fd5b5061034f6004803603604081101561031357600080fd5b81019080803573ffffffffffffffffffffffffffffffffffffffff169060200190929190803563ffffffff169060200190929190505050610852565b604051808215151515815260200191505060405180910390f35b60008060008090505b6001805490508160ff1610156104435760018160ff168154811061039257fe5b9060005260206000200160000160009054906101000a900473ffffffffffffffffffffffffffffffffffffffff1673ffffffffffffffffffffffffffffffffffffffff168473ffffffffffffffffffffffffffffffffffffffff16141561043657600060018260ff168154811061040557fe5b9060005260206000200160000160149054906101000a900467ffffffffffffffff1690508082935093505050610445565b8080600101915050610372565b505b915091565b6000809054906101000a900473ffffffffffffffffffffffffffffffffffffffff1673ffffffffffffffffffffffffffffffffffffffff163373ffffffffffffffffffffffffffffffffffffffff16146104a357600080fd5b60008090505b6001805490508160ff1610156106f2576104c16109b6565b60018260ff16815481106104d157fe5b906000526020600020016040518060400160405290816000820160009054906101000a900473ffffffffffffffffffffffffffffffffffffffff1673ffffffffffffffffffffffffffffffffffffffff1673ffffffffffffffffffffffffffffffffffffffff1681526020016000820160149054906101000a900467ffffffffffffffff1667ffffffffffffffff1667ffffffffffffffff168152505090506000600260019054906101000a900461ffff1661ffff16600260009054906101000a900460ff1660ff1683602001510267ffffffffffffffff16816105b157fe5b0490506000600260039054906101000a900461ffff1661ffff16820283602001510390506002600381819054906101000a900461ffff168092919060010191906101000a81548161ffff021916908361ffff1602179055505060008167ffffffffffffffff1611156106e2578167ffffffffffffffff168167ffffffffffffffff16111561068f573373ffffffffffffffffffffffffffffffffffffffff166108fc8367ffffffffffffffff169081150290604051600060405180830381858888f19350505050158015610689573d6000803e3d6000fd5b506106e1565b3373ffffffffffffffffffffffffffffffffffffffff166108fc8267ffffffffffffffff169081150290604051600060405180830381858888f193505050501580156106df573d6000803e3d6000fd5b505b5b50505080806001019150506104a9565b50565b6000809054906101000a900473ffffffffffffffffffffffffffffffffffffffff1681565b600260019054906101000a900461ffff1681565b6000809054906101000a900473ffffffffffffffffffffffffffffffffffffffff1673ffffffffffffffffffffffffffffffffffffffff163373ffffffffffffffffffffffffffffffffffffffff161461078757600080fd5b806000806101000a81548173ffffffffffffffffffffffffffffffffffffffff021916908373ffffffffffffffffffffffffffffffffffffffff16021790555050565b600260039054906101000a900461ffff1681565b600181815481106107eb57fe5b906000526020600020016000915090508060000160009054906101000a900473ffffffffffffffffffffffffffffffffffffffff16908060000160149054906101000a900467ffffffffffffffff16905082565b600260009054906101000a900460ff1681565b60008060009054906101000a900473ffffffffffffffffffffffffffffffffffffffff1673ffffffffffffffffffffffffffffffffffffffff163373ffffffffffffffffffffffffffffffffffffffff16146108ad57600080fd5b6000806108b985610369565b9150915060008267ffffffffffffffff1611156108db576000925050506109b0565b60405180604001604052808673ffffffffffffffffffffffffffffffffffffffff1681526020018563ffffffff1667ffffffffffffffff1681525060018260ff168154811061092657fe5b9060005260206000200160008201518160000160006101000a81548173ffffffffffffffffffffffffffffffffffffffff021916908373ffffffffffffffffffffffffffffffffffffffff16021790555060208201518160000160146101000a81548167ffffffffffffffff021916908367ffffffffffffffff1602179055509050506001925050505b92915050565b6040518060400160405280600073ffffffffffffffffffffffffffffffffffffffff168152602001600067ffffffffffffffff168152509056fea165627a7a723058205b6edd9eb766ac0fb5331ca44b03ce49da36a0bc1b0383a3a16c02bdf0b3a5d60029",
  "source": "pragma solidity ^0.5.8;\n// pragma experimental ABIEncoderV2;\n\n\ncontract APC2MHC {\n    address public owner;//合约所属人\n\tAsset[] public assets ; //待释放的集合\n    uint8 public molecule = 2; //每日千分之2释放\n    uint16 public denominator = 1000;\n    uint16 public unfreezeCount;\n    struct Asset { //资产\n        address userAddress;\n        uint64 totalAmount;\n    }\n\n    constructor() public {\n            owner = msg.sender;\n    }\n    //  event unfreezeEvent(Asset  asset);\n\n    modifier onlyOwner{\n        require(msg.sender == owner);\n        _;\n    }\n\n    function changeOwner(address _ownerAddress) public onlyOwner{\n        owner = _ownerAddress;\n    }\n\n    function getAsset(address _address) public  view  returns (uint64 ,uint8 ) {\n       for (uint8 _index = 0; _index < assets.length; _index++) {\n           if (_address == assets[_index].userAddress ){\n                uint64 _totalAmount = assets[_index].totalAmount;\n                return (_totalAmount,_index);\n           }\n       }\n    }\n\n     // 新增待释放\n     function add(address _addr,uint32 _frozenMount) public onlyOwner returns(bool has){\n      (uint64  _totalAmount, uint8 _index) = getAsset(_addr);\n      if (_totalAmount > 0){\n          return false;\n      }\n      assets[_index] = Asset(_addr,_frozenMount);\n      return true;\n     }\n\n\n          // 释放金额\n     function unfreeze() public onlyOwner payable {\n        for (uint8 index = 0; index < assets.length; index++) {\n            Asset memory _asset = assets[index];\n            uint64 _frozenAmountOnce = _asset.totalAmount * molecule / denominator;\n            uint64 _leftFrozenAMount = _asset.totalAmount - (_frozenAmountOnce * unfreezeCount);\n             unfreezeCount++;\n           if (_leftFrozenAMount > 0 ){\n               if (_leftFrozenAMount > _frozenAmountOnce){\n                    msg.sender.transfer(_frozenAmountOnce);\n               }else{\n                    msg.sender.transfer(_leftFrozenAMount);\n               }\n            //    emit unfreezeEvent(_asset);\n\n           }\n\n       }\n\n     }\n}",
  "sourcePath": "/DATA/Work/DEV/github/developer/truffle_apc/contracts/APC2MHC.sol",
  "compiler": {
    "name": "solc",
    "version": "0.5.8+commit.23d335f2.Emscripten.clang"
  },
  "schemaVersion": "3.0.11",
  "updatedAt": "2019-07-28T09:42:57.812Z",
  "devdoc": {
    "methods": {}
  },
  "userdoc": {
    "methods": {}
  }
}