{
  "contractName": "HelloWorld",
  "abi": [
    {
      "inputs": [],
      "payable": false,
      "stateMutability": "nonpayable",
      "type": "constructor"
    },
    {
      "constant": true,
      "inputs": [],
      "name": "say",
      "outputs": [
        {
          "name": "",
          "type": "string"
        }
      ],
      "payable": false,
      "stateMutability": "view",
      "type": "function"
    },
    {
      "constant": false,
      "inputs": [
        {
          "name": "_newMsg",
          "type": "string"
        }
      ],
      "name": "setMessage",
      "outputs": [],
      "payable": false,
      "stateMutability": "nonpayable",
      "type": "function"
    },
    {
      "constant": false,
      "inputs": [],
      "name": "kill",
      "outputs": [],
      "payable": true,
      "stateMutability": "payable",
      "type": "function"
    }
  ],
  "bytecode": "0x608060405234801561001057600080fd5b50336000806101000a81548173ffffffffffffffffffffffffffffffffffffffff021916908373ffffffffffffffffffffffffffffffffffffffff1602179055506103b9806100606000396000f3fe6080604052600436106100345760003560e01c8063368b87721461003957806341c0e1b514610101578063954ab4b21461010b575b600080fd5b34801561004557600080fd5b506100ff6004803603602081101561005c57600080fd5b810190808035906020019064010000000081111561007957600080fd5b82018360208201111561008b57600080fd5b803590602001918460018302840111640100000000831117156100ad57600080fd5b91908080601f016020809104026020016040519081016040528093929190818152602001838380828437600081840152601f19601f82011690508083019250505050505050919291929050505061019b565b005b6101096101b5565b005b34801561011757600080fd5b50610120610246565b6040518080602001828103825283818151815260200191508051906020019080838360005b83811015610160578082015181840152602081019050610145565b50505050905090810190601f16801561018d5780820380516001836020036101000a031916815260200191505b509250505060405180910390f35b80600190805190602001906101b19291906102e8565b5050565b6000809054906101000a900473ffffffffffffffffffffffffffffffffffffffff1673ffffffffffffffffffffffffffffffffffffffff163373ffffffffffffffffffffffffffffffffffffffff161415610244576000809054906101000a900473ffffffffffffffffffffffffffffffffffffffff1673ffffffffffffffffffffffffffffffffffffffff16ff5b565b606060018054600181600116156101000203166002900480601f0160208091040260200160405190810160405280929190818152602001828054600181600116156101000203166002900480156102de5780601f106102b3576101008083540402835291602001916102de565b820191906000526020600020905b8154815290600101906020018083116102c157829003601f168201915b5050505050905090565b828054600181600116156101000203166002900490600052602060002090601f016020900481019282601f1061032957805160ff1916838001178555610357565b82800160010185558215610357579182015b8281111561035657825182559160200191906001019061033b565b5b5090506103649190610368565b5090565b61038a91905b8082111561038657600081600090555060010161036e565b5090565b9056fea165627a7a723058205db8fa796113e6ce51d763f12c1dee0d9b9ad5638536594028bcd5e868006e2b0029",
  "source": "pragma solidity ^0.5.8;\n\ncontract HelloWorld{\n    address payable creator;     \n    string message;     \n\n    constructor() public{\n        creator = msg.sender;\n    }\n\n    function say() public view returns (string memory)          \n    {\n        return message;\n    }\n    \n    function setMessage(string memory _newMsg) public\n    {\n        message = _newMsg;\n    }\n    \n     /**********\n     Standard kill() function to recover funds \n     **********/\n    \n    function kill()public payable{ \n        if (msg.sender == creator){\n            selfdestruct(creator);  // kills this contract and sends remaining funds back to creator\n    }\n    }\n\n}",
  "sourcePath": "/DATA/Work/DEV/github/developer/truffle_apc/contracts/HelloWorld.sol",
  "compiler": {
    "name": "solc",
    "version": "0.5.8+commit.23d335f2.Emscripten.clang"
  },
  "schemaVersion": "3.0.11",
  "updatedAt": "2019-07-28T09:43:12.631Z",
  "devdoc": {
    "methods": {}
  },
  "userdoc": {
    "methods": {
      "kill()": {
        "notice": "******** Standard kill() function to recover funds *********"
      }
    }
  }
}